:1000000012C024C023C022C021C020C01FC01EC0F7
:100010001DC01CC01BC01AC019C018C017C016C014
:1000200015C014C013C011241FBECFE5D4E0DEBF3D
:10003000CDBF10E0A0E6B0E0E8E9F1E002C0059035
:100040000D92A036B107D9F702D0A4C0D9CF05D000
:1000500080E094E02FD07894FFCFB89AB998BA98FE
:10006000BB98BC98BD98BE9ABF9AC098C198C298D8
:10007000C398C498C598C698C798A09AA19AA29AFE
:10008000A39AA49AA59AA898A998AA98AB98AC986C
:10009000AD988898899A8A988B988C9A8D9A8E9A1E
:1000A0008F9A88988998929893989498959896980A
:1000B0009798089580349105B9F150F488309105EE
:1000C000F9F08032910531F1019709F055C00EC069
:1000D000811521E09207E1F1811524E0920709F4EE
:1000E00041C08038910509F047C028C085B58160BE
:1000F00085BD85B58D7F85BD85B58B7F85BD45C0AB
:1001000085B58E7F85BD85B5826085BD85B58B7FC4
:1001100085BD3BC085B58E7F85BD85B5826085BDBB
:1001200085B5846085BD31C085B58E7F85BD85B5BB
:100130008D7F85BD85B5846085BD27C085B581600F
:1001400085BD85B58D7F85BD85B5846085BD1DC0A8
:1001500085B58E7F85BD85B5826085BD85B584609A
:1001600085BD13C085B5816085BD85B5826085BDBF
:1001700085B5846085BD09C085B5816085BD85B5BF
:10018000826085BD85B5846085BD14BC89B78660F5
:0801900089BF0895F894FFCF28
:00000001FF
