S00C00006D61696E2E7372656373
S113000012C024C023C022C021C020C01FC01EC0F3
S11300101DC01CC01BC01AC019C018C017C016C010
S113002015C014C013C011241FBECFE5D4E0DEBF39
S1130030CDBF10E0A0E6B0E0ECECF0E002C005902B
S11300400D92A036B107D9F702D03EC0D9CF03D064
S11300502FD07894FFCFB89AB998BA98BB98BC9827
S1130060BD98BE9ABF9AC098C198C298C398C498C4
S1130070C598C698C798A09AA19AA29AA39AA49A36
S1130080A59AA898A998AA98AB98AC98AD9888987E
S1130090899A8A988B988C9A8D9A8E9A8F9A889836
S11300A08998929893989498959896989798089583
S11300B08EB581608EBD8EB584608EBD1DBC1CBCAA
S10F00C089B7826089BF0895F894FFCFCF
S9030000FC
