:100000001DC037C036C035C034C033C032C031C067
:1000100030C02FC02EC02DC02CC02BC02AC029C07C
:1000200028C027C026C032C037C03CC041C046C02F
:100030004BC050C055C05AC05FC064C011241FBE21
:10004000CFE5D4E0DEBFCDBF10E0A0E6B0E0E0E257
:10005000F2E002C005900D92AC36B107D9F720E06E
:10006000ACE6B0E001C01D92AC36B207E1F795D026
:10007000D5C0C6CF95B3907F95BB90E08B309105EE
:1000800008F045C0FC01ED5EFF4F099495B38091E7
:100090006100892B85BB089595B380916200892BFF
:1000A00085BB089595B380916300892B85BB089526
:1000B00095B380916400892B85BB089595B3809199
:1000C0006500892B85BB089595B380916600892BC7
:1000D00085BB089595B380916700892B85BB0895F2
:1000E00095B380916800892B85BB089595B3809165
:1000F0006900892B85BB089595B380916A00892B8F
:1001000085BB089595B380916B00892B85BB0895BD
:10011000809160008330D1F028F4813049F0823042
:1001200071F02FC0853001F1C0F0863021F129C077
:10013000C69AC798959896989798C09822C0C698DE
:10014000C79A959896989798C0981BC0C698C798D4
:10015000959A96989798C09814C0C698C7989598FD
:10016000969A9798C0980DC0C698C79895989698F3
:10017000979AC09806C0C698C798959896989798E9
:10018000C09A809160008F5F873018F48093600080
:10019000089581E080936000089513D0C0E0D0E01E
:1001A0008C2F68DFB5DF2FEF80E792E02150804091
:1001B0009040E1F700C00000CF5FCB3088F3CD2F37
:1001C000EFCFB89AB998BA98BB98BC98BD98BE9A28
:1001D000BF9AC098C198C298C398C498C598C69849
:1001E000C798A09AA19AA29AA39AA49AA59AA89805
:1001F000A998AA98AB98AC98AD988898899A8A984B
:100200008B988C9A8D9A8E9A8F9A889889989298C2
:10021000939894989598969897980895F894FFCF06
:0C022000010001040508090C0D02030F89
:00000001FF
