S00C00006D61696E2E7372656373
S113000012C021C020C01FC01EC01DC01CC01BC008
S11300101AC019C018C017C016C015C014C013C028
S113002012C011C010C011241FBECFE5D4E0DEBF42
S1130030CDBF20E0A0E6B0E001C01D92A036B2071B
S1130040E1F702D030C0DCCF01D0FFCFB89AB99825
S1130050BA98BB98BC98BD98BE9ABF9AC098C198EC
S1130060C298C398C498C598C698C798A09AA19AEC
S1130070A29AA39AA49AA59AA898A998AA98AB9880
S1130080AC98AD988898899A8A988B988C9A8D9A0E
S11300908E9A8F9A8898899892989398949895981C
S10D00A0969897980895F894FFCFFE
S9030000FC
